{
  "_format": "hh-sol-artifact-1",
  "contractName": "VotingSystem",
  "sourceName": "contracts/BlockchainVotingSystem.sol",
  "abi": [
    {
      "inputs": [],
      "stateMutability": "nonpayable",
      "type": "constructor"
    },
    {
      "anonymous": false,
      "inputs": [
        {
          "indexed": false,
          "internalType": "uint256",
          "name": "voterId",
          "type": "uint256"
        },
        {
          "indexed": false,
          "internalType": "uint256",
          "name": "partyIndex",
          "type": "uint256"
        },
        {
          "indexed": false,
          "internalType": "int256",
          "name": "newVoteCount",
          "type": "int256"
        }
      ],
      "name": "VoteCast",
      "type": "event"
    },
    {
      "anonymous": false,
      "inputs": [
        {
          "indexed": false,
          "internalType": "uint256",
          "name": "voterId",
          "type": "uint256"
        },
        {
          "indexed": false,
          "internalType": "string",
          "name": "name",
          "type": "string"
        },
        {
          "indexed": false,
          "internalType": "uint256",
          "name": "aadhar",
          "type": "uint256"
        }
      ],
      "name": "VoterRegistered",
      "type": "event"
    },
    {
      "inputs": [
        {
          "internalType": "uint256",
          "name": "",
          "type": "uint256"
        }
      ],
      "name": "candidates",
      "outputs": [
        {
          "internalType": "string",
          "name": "name",
          "type": "string"
        },
        {
          "internalType": "string",
          "name": "party",
          "type": "string"
        },
        {
          "internalType": "string",
          "name": "area",
          "type": "string"
        },
        {
          "internalType": "int256",
          "name": "totalVotes",
          "type": "int256"
        }
      ],
      "stateMutability": "view",
      "type": "function"
    },
    {
      "inputs": [
        {
          "internalType": "uint256",
          "name": "_voterId",
          "type": "uint256"
        },
        {
          "internalType": "uint256",
          "name": "_partyIndex",
          "type": "uint256"
        }
      ],
      "name": "castVote",
      "outputs": [],
      "stateMutability": "nonpayable",
      "type": "function"
    },
    {
      "inputs": [
        {
          "internalType": "uint256",
          "name": "_voterId",
          "type": "uint256"
        }
      ],
      "name": "getVoterDetails",
      "outputs": [
        {
          "internalType": "uint256",
          "name": "",
          "type": "uint256"
        },
        {
          "internalType": "string",
          "name": "",
          "type": "string"
        },
        {
          "internalType": "uint256",
          "name": "",
          "type": "uint256"
        }
      ],
      "stateMutability": "view",
      "type": "function"
    },
    {
      "inputs": [
        {
          "internalType": "uint256",
          "name": "_voterId",
          "type": "uint256"
        },
        {
          "internalType": "string",
          "name": "_name",
          "type": "string"
        },
        {
          "internalType": "uint256",
          "name": "_aadhar",
          "type": "uint256"
        }
      ],
      "name": "registerVoter",
      "outputs": [],
      "stateMutability": "nonpayable",
      "type": "function"
    }
  ],
  "bytecode": "0x608060405234801561001057600080fd5b5060405180608001604052806040518060400160405280600181526020017f4d0000000000000000000000000000000000000000000000000000000000000081525081526020016040518060400160405280600781526020017f506172747920310000000000000000000000000000000000000000000000000081525081526020016040518060400160405280600a81526020017f4b686164657262616768000000000000000000000000000000000000000000008152508152602001600081525060026000600581106100e7576100e66105e2565b5b6004020160008201518160000190816101009190610861565b5060208201518160010190816101169190610861565b50604082015181600201908161012c9190610861565b506060820151816003015590505060405180608001604052806040518060400160405280600181526020017f530000000000000000000000000000000000000000000000000000000000000081525081526020016040518060400160405280600781526020017f506172747920320000000000000000000000000000000000000000000000000081525081526020016040518060400160405280600b81526020017f4e616e616c204e616761720000000000000000000000000000000000000000008152508152602001600081525060026001600581106102105761020f6105e2565b5b6004020160008201518160000190816102299190610861565b50602082015181600101908161023f9190610861565b5060408201518160020190816102559190610861565b506060820151816003015590505060405180608001604052806040518060400160405280600181526020017f410000000000000000000000000000000000000000000000000000000000000081525081526020016040518060400160405280600781526020017f506172747920330000000000000000000000000000000000000000000000000081525081526020016040518060400160405280600a81526020017f546f6c6963686f776b69000000000000000000000000000000000000000000008152508152602001600081525060028060058110610338576103376105e2565b5b6004020160008201518160000190816103519190610861565b5060208201518160010190816103679190610861565b50604082015181600201908161037d9190610861565b506060820151816003015590505060405180608001604052806040518060400160405280600181526020017f420000000000000000000000000000000000000000000000000000000000000081525081526020016040518060400160405280600781526020017f506172747920340000000000000000000000000000000000000000000000000081525081526020016040518060400160405280600a81526020017f4761636869626f776c6900000000000000000000000000000000000000000000815250815260200160008152506002600360058110610461576104606105e2565b5b60040201600082015181600001908161047a9190610861565b5060208201518160010190816104909190610861565b5060408201518160020190816104a69190610861565b506060820151816003015590505060405180608001604052806040518060400160405280600181526020017f430000000000000000000000000000000000000000000000000000000000000081525081526020016040518060400160405280600781526020017f506172747920350000000000000000000000000000000000000000000000000081525081526020016040518060400160405280600881526020017f4d6164686170757200000000000000000000000000000000000000000000000081525081526020016000815250600260046005811061058a576105896105e2565b5b6004020160008201518160000190816105a39190610861565b5060208201518160010190816105b99190610861565b5060408201518160020190816105cf9190610861565b5060608201518160030155905050610933565b7f4e487b7100000000000000000000000000000000000000000000000000000000600052603260045260246000fd5b600081519050919050565b7f4e487b7100000000000000000000000000000000000000000000000000000000600052604160045260246000fd5b7f4e487b7100000000000000000000000000000000000000000000000000000000600052602260045260246000fd5b6000600282049050600182168061069257607f821691505b6020821081036106a5576106a461064b565b5b50919050565b60008190508160005260206000209050919050565b60006020601f8301049050919050565b600082821b905092915050565b60006008830261070d7fffffffffffffffffffffffffffffffffffffffffffffffffffffffffffffffff826106d0565b61071786836106d0565b95508019841693508086168417925050509392505050565b6000819050919050565b6000819050919050565b600061075e6107596107548461072f565b610739565b61072f565b9050919050565b6000819050919050565b61077883610743565b61078c61078482610765565b8484546106dd565b825550505050565b600090565b6107a1610794565b6107ac81848461076f565b505050565b5b818110156107d0576107c5600082610799565b6001810190506107b2565b5050565b601f821115610815576107e6816106ab565b6107ef846106c0565b810160208510156107fe578190505b61081261080a856106c0565b8301826107b1565b50505b505050565b600082821c905092915050565b60006108386000198460080261081a565b1980831691505092915050565b60006108518383610827565b9150826002028217905092915050565b61086a82610611565b67ffffffffffffffff8111156108835761088261061c565b5b61088d825461067a565b6108988282856107d4565b600060209050601f8311600181146108cb57600084156108b9578287015190505b6108c38582610845565b86555061092b565b601f1984166108d9866106ab565b60005b82811015610901578489015182556001820191506020850194506020810190506108dc565b8683101561091e578489015161091a601f891682610827565b8355505b6001600288020188555050505b505050505050565b6110cb806109426000396000f3fe608060405234801561001057600080fd5b506004361061004c5760003560e01c80632c0a3f89146100515780633477ee2e1461006d5780637b8fe166146100a0578063b5a87c9d146100d2575b600080fd5b61006b6004803603810190610066919061075d565b6100ee565b005b6100876004803603810190610082919061079d565b6102b7565b6040516100979493929190610873565b60405180910390f35b6100ba60048036038101906100b5919061079d565b610485565b6040516100c9939291906108dc565b60405180910390f35b6100ec60048036038101906100e79190610a4f565b6105ec565b005b60008083815260200190815260200160002060030160009054906101000a900460ff16610150576040517f08c379a000000000000000000000000000000000000000000000000000000000815260040161014790610b0a565b60405180910390fd5b6001600083815260200190815260200160002060009054906101000a900460ff16156101b1576040517f08c379a00000000000000000000000000000000000000000000000000000000081526004016101a890610b76565b60405180910390fd5b6000811180156101c2575060058111155b610201576040517f08c379a00000000000000000000000000000000000000000000000000000000081526004016101f890610be2565b60405180910390fd5b600180600084815260200190815260200160002060006101000a81548160ff021916908315150217905550600281600581106102405761023f610c02565b5b60040201600301600081548092919061025890610c60565b91905055507fd5f9657aee44718376696bdabe4f3f78a7db7736f74509b8f2450dc01e85eeb582826002846005811061029457610293610c02565b5b60040201600301546040516102ab93929190610ca8565b60405180910390a15050565b600281600581106102c757600080fd5b600402016000915090508060000180546102e090610d0e565b80601f016020809104026020016040519081016040528092919081815260200182805461030c90610d0e565b80156103595780601f1061032e57610100808354040283529160200191610359565b820191906000526020600020905b81548152906001019060200180831161033c57829003601f168201915b50505050509080600101805461036e90610d0e565b80601f016020809104026020016040519081016040528092919081815260200182805461039a90610d0e565b80156103e75780601f106103bc576101008083540402835291602001916103e7565b820191906000526020600020905b8154815290600101906020018083116103ca57829003601f168201915b5050505050908060020180546103fc90610d0e565b80601f016020809104026020016040519081016040528092919081815260200182805461042890610d0e565b80156104755780601f1061044a57610100808354040283529160200191610475565b820191906000526020600020905b81548152906001019060200180831161045857829003601f168201915b5050505050908060030154905084565b60006060600080600085815260200190815260200160002060030160009054906101000a900460ff166104ed576040517f08c379a00000000000000000000000000000000000000000000000000000000081526004016104e490610d8b565b60405180910390fd5b60008060008681526020019081526020016000206040518060800160405290816000820154815260200160018201805461052690610d0e565b80601f016020809104026020016040519081016040528092919081815260200182805461055290610d0e565b801561059f5780601f106105745761010080835404028352916020019161059f565b820191906000526020600020905b81548152906001019060200180831161058257829003601f168201915b50505050508152602001600282015481526020016003820160009054906101000a900460ff1615151515815250509050806000015181602001518260400151935093509350509193909250565b8260008082815260200190815260200160002060030160009054906101000a900460ff1615610650576040517f08c379a000000000000000000000000000000000000000000000000000000000815260040161064790610df7565b60405180910390fd5b6040518060800160405280858152602001848152602001838152602001600115158152506000808681526020019081526020016000206000820151816000015560208201518160010190816106a59190610fc3565b506040820151816002015560608201518160030160006101000a81548160ff0219169083151502179055509050507e282b52c268b3a201d3c4c4a061a46bed2007670cc23b3e90e8d07cfbf1374c848484604051610705939291906108dc565b60405180910390a150505050565b6000604051905090565b600080fd5b600080fd5b6000819050919050565b61073a81610727565b811461074557600080fd5b50565b60008135905061075781610731565b92915050565b600080604083850312156107745761077361071d565b5b600061078285828601610748565b925050602061079385828601610748565b9150509250929050565b6000602082840312156107b3576107b261071d565b5b60006107c184828501610748565b91505092915050565b600081519050919050565b600082825260208201905092915050565b60005b838110156108045780820151818401526020810190506107e9565b60008484015250505050565b6000601f19601f8301169050919050565b600061082c826107ca565b61083681856107d5565b93506108468185602086016107e6565b61084f81610810565b840191505092915050565b6000819050919050565b61086d8161085a565b82525050565b6000608082019050818103600083015261088d8187610821565b905081810360208301526108a18186610821565b905081810360408301526108b58185610821565b90506108c46060830184610864565b95945050505050565b6108d681610727565b82525050565b60006060820190506108f160008301866108cd565b81810360208301526109038185610821565b905061091260408301846108cd565b949350505050565b600080fd5b600080fd5b7f4e487b7100000000000000000000000000000000000000000000000000000000600052604160045260246000fd5b61095c82610810565b810181811067ffffffffffffffff8211171561097b5761097a610924565b5b80604052505050565b600061098e610713565b905061099a8282610953565b919050565b600067ffffffffffffffff8211156109ba576109b9610924565b5b6109c382610810565b9050602081019050919050565b82818337600083830152505050565b60006109f26109ed8461099f565b610984565b905082815260208101848484011115610a0e57610a0d61091f565b5b610a198482856109d0565b509392505050565b600082601f830112610a3657610a3561091a565b5b8135610a468482602086016109df565b91505092915050565b600080600060608486031215610a6857610a6761071d565b5b6000610a7686828701610748565b935050602084013567ffffffffffffffff811115610a9757610a96610722565b5b610aa386828701610a21565b9250506040610ab486828701610748565b9150509250925092565b7f4572726f723a20566f746572206973206e6f7420726567697374657265642e00600082015250565b6000610af4601f836107d5565b9150610aff82610abe565b602082019050919050565b60006020820190508181036000830152610b2381610ae7565b9050919050565b7f4572726f723a20566f7465722068617320616c726561647920766f7465642e00600082015250565b6000610b60601f836107d5565b9150610b6b82610b2a565b602082019050919050565b60006020820190508181036000830152610b8f81610b53565b9050919050565b7f4572726f723a20496e76616c696420706172747920696e6465782e0000000000600082015250565b6000610bcc601b836107d5565b9150610bd782610b96565b602082019050919050565b60006020820190508181036000830152610bfb81610bbf565b9050919050565b7f4e487b7100000000000000000000000000000000000000000000000000000000600052603260045260246000fd5b7f4e487b7100000000000000000000000000000000000000000000000000000000600052601160045260246000fd5b6000610c6b8261085a565b91507f7fffffffffffffffffffffffffffffffffffffffffffffffffffffffffffffff8203610c9d57610c9c610c31565b5b600182019050919050565b6000606082019050610cbd60008301866108cd565b610cca60208301856108cd565b610cd76040830184610864565b949350505050565b7f4e487b7100000000000000000000000000000000000000000000000000000000600052602260045260246000fd5b60006002820490506001821680610d2657607f821691505b602082108103610d3957610d38610cdf565b5b50919050565b7f566f746572206973206e6f7420726567697374657265642e0000000000000000600082015250565b6000610d756018836107d5565b9150610d8082610d3f565b602082019050919050565b60006020820190508181036000830152610da481610d68565b9050919050565b7f566f74657220697320616c726561647920726567697374657265642e00000000600082015250565b6000610de1601c836107d5565b9150610dec82610dab565b602082019050919050565b60006020820190508181036000830152610e1081610dd4565b9050919050565b60008190508160005260206000209050919050565b60006020601f8301049050919050565b600082821b905092915050565b600060088302610e797fffffffffffffffffffffffffffffffffffffffffffffffffffffffffffffffff82610e3c565b610e838683610e3c565b95508019841693508086168417925050509392505050565b6000819050919050565b6000610ec0610ebb610eb684610727565b610e9b565b610727565b9050919050565b6000819050919050565b610eda83610ea5565b610eee610ee682610ec7565b848454610e49565b825550505050565b600090565b610f03610ef6565b610f0e818484610ed1565b505050565b5b81811015610f3257610f27600082610efb565b600181019050610f14565b5050565b601f821115610f7757610f4881610e17565b610f5184610e2c565b81016020851015610f60578190505b610f74610f6c85610e2c565b830182610f13565b50505b505050565b600082821c905092915050565b6000610f9a60001984600802610f7c565b1980831691505092915050565b6000610fb38383610f89565b9150826002028217905092915050565b610fcc826107ca565b67ffffffffffffffff811115610fe557610fe4610924565b5b610fef8254610d0e565b610ffa828285610f36565b600060209050601f83116001811461102d576000841561101b578287015190505b6110258582610fa7565b86555061108d565b601f19841661103b86610e17565b60005b828110156110635784890151825560018201915060208501945060208101905061103e565b86831015611080578489015161107c601f891682610f89565b8355505b6001600288020188555050505b50505050505056fea26469706673582212208bc010e4e50e859e7a844bf4effbd994992f1a230ce4eb6bf4d1655e634e0df564736f6c634300081c0033",
  "linkReferences": {},
  "deployedLinkReferences": {}
}